{
  "_format": "hh-sol-artifact-1",
  "contractName": "WavePortal",
  "sourceName": "contracts/WavePortal.sol",
  "abi": [
    {
      "inputs": [],
      "stateMutability": "nonpayable",
      "type": "constructor"
    },
    {
      "inputs": [],
      "name": "getTotalWaves",
      "outputs": [
        {
          "internalType": "uint256",
          "name": "",
          "type": "uint256"
        }
      ],
      "stateMutability": "view",
      "type": "function"
    },
    {
      "inputs": [
        {
          "internalType": "address",
          "name": "waver",
          "type": "address"
        }
      ],
      "name": "recordWaver",
      "outputs": [],
      "stateMutability": "nonpayable",
      "type": "function"
    },
    {
      "inputs": [],
      "name": "wave",
      "outputs": [],
      "stateMutability": "nonpayable",
      "type": "function"
    }
  ],
  "bytecode": "0x608060405234801561001057600080fd5b5061003c6040518060a00160405280606181526020016108166061913961004160201b6101d41760201c565b6101bb565b6100dd816040516024016100559190610199565b6040516020818303038152906040527f41304fac000000000000000000000000000000000000000000000000000000007bffffffffffffffffffffffffffffffffffffffffffffffffffffffff19166020820180517bffffffffffffffffffffffffffffffffffffffffffffffffffffffff83818316178352505050506100e060201b60201c565b50565b60008151905060006a636f6e736f6c652e6c6f679050602083016000808483855afa5050505050565b600081519050919050565b600082825260208201905092915050565b60005b83811015610143578082015181840152602081019050610128565b60008484015250505050565b6000601f19601f8301169050919050565b600061016b82610109565b6101758185610114565b9350610185818560208601610125565b61018e8161014f565b840191505092915050565b600060208201905081810360008301526101b38184610160565b905092915050565b61064c806101ca6000396000f3fe608060405234801561001057600080fd5b50600436106100415760003560e01c806363f397a0146100465780636fe15b44146100625780639a2cdc081461006c575b600080fd5b610060600480360381019061005b9190610431565b61008a565b005b61006a61012f565b005b610074610189565b6040516100819190610477565b60405180910390f35b6001819080600181540180825580915050600190039060005260206000200160009091909190916101000a81548173ffffffffffffffffffffffffffffffffffffffff021916908373ffffffffffffffffffffffffffffffffffffffff16021790555061012c6040518060400160405280601b81526020017f5265636f726465642074686973207761766572202d3e202825732900000000008152508261026d565b50565b600160008082825461014191906104c1565b925050819055506101876040518060400160405280600d81526020017f25732068617320776176656421000000000000000000000000000000000000008152503361026d565b565b60006101cc6040518060400160405280601781526020017f5765206861766520256420746f74616c20776176657321000000000000000000815250600054610309565b600054905090565b61026a816040516024016101e89190610585565b6040516020818303038152906040527f41304fac000000000000000000000000000000000000000000000000000000007bffffffffffffffffffffffffffffffffffffffffffffffffffffffff19166020820180517bffffffffffffffffffffffffffffffffffffffffffffffffffffffff83818316178352505050506103a5565b50565b61030582826040516024016102839291906105b6565b6040516020818303038152906040527f319af333000000000000000000000000000000000000000000000000000000007bffffffffffffffffffffffffffffffffffffffffffffffffffffffff19166020820180517bffffffffffffffffffffffffffffffffffffffffffffffffffffffff83818316178352505050506103a5565b5050565b6103a1828260405160240161031f9291906105e6565b6040516020818303038152906040527fb60e72cc000000000000000000000000000000000000000000000000000000007bffffffffffffffffffffffffffffffffffffffffffffffffffffffff19166020820180517bffffffffffffffffffffffffffffffffffffffffffffffffffffffff83818316178352505050506103a5565b5050565b60008151905060006a636f6e736f6c652e6c6f679050602083016000808483855afa5050505050565b600080fd5b600073ffffffffffffffffffffffffffffffffffffffff82169050919050565b60006103fe826103d3565b9050919050565b61040e816103f3565b811461041957600080fd5b50565b60008135905061042b81610405565b92915050565b600060208284031215610447576104466103ce565b5b60006104558482850161041c565b91505092915050565b6000819050919050565b6104718161045e565b82525050565b600060208201905061048c6000830184610468565b92915050565b7f4e487b7100000000000000000000000000000000000000000000000000000000600052601160045260246000fd5b60006104cc8261045e565b91506104d78361045e565b92508282019050808211156104ef576104ee610492565b5b92915050565b600081519050919050565b600082825260208201905092915050565b60005b8381101561052f578082015181840152602081019050610514565b60008484015250505050565b6000601f19601f8301169050919050565b6000610557826104f5565b6105618185610500565b9350610571818560208601610511565b61057a8161053b565b840191505092915050565b6000602082019050818103600083015261059f818461054c565b905092915050565b6105b0816103f3565b82525050565b600060408201905081810360008301526105d0818561054c565b90506105df60208301846105a7565b9392505050565b60006040820190508181036000830152610600818561054c565b905061060f6020830184610468565b939250505056fea264697066735822122046d8d2de498d7abd6c44501397beb776bccd1bbc558d372ffca7c7adb81006bf64736f6c63430008110033596f2c20796f2c20796f2c204920616d206120636f6e747261637420616e64204920616d20736d6172742e2049276d206d616465206f7574206f66206f6e657320616e64207a65726f7320616e642049206c6f7665206d616b696e672061727421",
  "linkReferences": {},
  "deployedLinkReferences": {}
}